{
  "contractName": "GaoFusion",
  "abi": [
    {
      "constant": false,
      "inputs": [
        {
          "name": "new_address",
          "type": "address"
        }
      ],
      "name": "upgrade",
      "outputs": [],
      "payable": false,
      "stateMutability": "nonpayable",
      "type": "function"
    },
    {
      "constant": true,
      "inputs": [],
      "name": "last_completed_migration",
      "outputs": [
        {
          "name": "",
          "type": "uint256"
        }
      ],
      "payable": false,
      "stateMutability": "view",
      "type": "function"
    },
    {
      "constant": true,
      "inputs": [],
      "name": "owner",
      "outputs": [
        {
          "name": "",
          "type": "address"
        }
      ],
      "payable": false,
      "stateMutability": "view",
      "type": "function"
    },
    {
      "constant": true,
      "inputs": [
        {
          "name": "",
          "type": "uint256"
        }
      ],
      "name": "gaoIndexToOwner",
      "outputs": [
        {
          "name": "",
          "type": "address"
        }
      ],
      "payable": false,
      "stateMutability": "view",
      "type": "function"
    },
    {
      "constant": true,
      "inputs": [
        {
          "name": "",
          "type": "uint256"
        }
      ],
      "name": "gaoIndexToApproved",
      "outputs": [
        {
          "name": "",
          "type": "address"
        }
      ],
      "payable": false,
      "stateMutability": "view",
      "type": "function"
    },
    {
      "constant": true,
      "inputs": [
        {
          "name": "",
          "type": "uint256"
        }
      ],
      "name": "gaos",
      "outputs": [
        {
          "name": "mature",
          "type": "bool"
        },
        {
          "name": "origin",
          "type": "uint256"
        },
        {
          "name": "birthTime",
          "type": "uint64"
        },
        {
          "name": "eventId",
          "type": "uint32"
        },
        {
          "name": "bonding",
          "type": "uint16"
        },
        {
          "name": "level",
          "type": "uint16"
        },
        {
          "name": "gao_type",
          "type": "uint16"
        }
      ],
      "payable": false,
      "stateMutability": "view",
      "type": "function"
    },
    {
      "constant": false,
      "inputs": [
        {
          "name": "newOwner",
          "type": "address"
        }
      ],
      "name": "transferOwnership",
      "outputs": [],
      "payable": false,
      "stateMutability": "nonpayable",
      "type": "function"
    },
    {
      "constant": false,
      "inputs": [
        {
          "name": "completed",
          "type": "uint256"
        }
      ],
      "name": "setCompleted",
      "outputs": [],
      "payable": false,
      "stateMutability": "nonpayable",
      "type": "function"
    },
    {
      "anonymous": false,
      "inputs": [
        {
          "indexed": false,
          "name": "owner",
          "type": "address"
        },
        {
          "indexed": false,
          "name": "gaoId",
          "type": "uint256"
        }
      ],
      "name": "Fusion",
      "type": "event"
    },
    {
      "anonymous": false,
      "inputs": [
        {
          "indexed": false,
          "name": "owner",
          "type": "address"
        },
        {
          "indexed": false,
          "name": "gaoID",
          "type": "uint256"
        },
        {
          "indexed": false,
          "name": "gao_type",
          "type": "uint16"
        },
        {
          "indexed": false,
          "name": "origin",
          "type": "uint256"
        },
        {
          "indexed": false,
          "name": "mature",
          "type": "bool"
        },
        {
          "indexed": false,
          "name": "birthTime",
          "type": "uint64"
        },
        {
          "indexed": false,
          "name": "bonding",
          "type": "uint16"
        },
        {
          "indexed": false,
          "name": "level",
          "type": "uint16"
        }
      ],
      "name": "NewGao",
      "type": "event"
    },
    {
      "anonymous": false,
      "inputs": [
        {
          "indexed": false,
          "name": "_from",
          "type": "address"
        },
        {
          "indexed": false,
          "name": "_to",
          "type": "address"
        },
        {
          "indexed": false,
          "name": "tokenId",
          "type": "uint256"
        }
      ],
      "name": "Transfer",
      "type": "event"
    },
    {
      "constant": true,
      "inputs": [
        {
          "name": "_gaoId",
          "type": "uint256"
        }
      ],
      "name": "isReadyToFuse",
      "outputs": [
        {
          "name": "",
          "type": "bool"
        }
      ],
      "payable": false,
      "stateMutability": "view",
      "type": "function"
    },
    {
      "constant": false,
      "inputs": [
        {
          "name": "_gaoId",
          "type": "uint256"
        }
      ],
      "name": "fuseGao",
      "outputs": [],
      "payable": true,
      "stateMutability": "payable",
      "type": "function"
    }
  ],
  "bytecode": "0x60806040526000600655662386f26fc10000600755336000806101000a81548173ffffffffffffffffffffffffffffffffffffffff021916908373ffffffffffffffffffffffffffffffffffffffff160217905550610fad806100636000396000f3006080604052600436106100a4576000357c0100000000000000000000000000000000000000000000000000000000900463ffffffff1680630900f010146100a9578063445df0ac146100ec5780635aa71271146101175780638da5cb5b1461015c578063ac89caa0146101b3578063cc39d94214610220578063db90bcbb14610240578063ef8d3d7a146102ad578063f2fde38b14610354578063fdacd57614610397575b600080fd5b3480156100b557600080fd5b506100ea600480360381019080803573ffffffffffffffffffffffffffffffffffffffff1690602001909291905050506103c4565b005b3480156100f857600080fd5b506101016104ac565b6040518082815260200191505060405180910390f35b34801561012357600080fd5b50610142600480360381019080803590602001909291905050506104b2565b604051808215151515815260200191505060405180910390f35b34801561016857600080fd5b506101716106b6565b604051808273ffffffffffffffffffffffffffffffffffffffff1673ffffffffffffffffffffffffffffffffffffffff16815260200191505060405180910390f35b3480156101bf57600080fd5b506101de600480360381019080803590602001909291905050506106db565b604051808273ffffffffffffffffffffffffffffffffffffffff1673ffffffffffffffffffffffffffffffffffffffff16815260200191505060405180910390f35b61023e6004803603810190808035906020019092919050505061070e565b005b34801561024c57600080fd5b5061026b600480360381019080803590602001909291905050506109c0565b604051808273ffffffffffffffffffffffffffffffffffffffff1673ffffffffffffffffffffffffffffffffffffffff16815260200191505060405180910390f35b3480156102b957600080fd5b506102d8600480360381019080803590602001909291905050506109f3565b60405180881515151581526020018781526020018667ffffffffffffffff1667ffffffffffffffff1681526020018563ffffffff1663ffffffff1681526020018461ffff1661ffff1681526020018361ffff1661ffff1681526020018261ffff1661ffff16815260200197505050505050505060405180910390f35b34801561036057600080fd5b50610395600480360381019080803573ffffffffffffffffffffffffffffffffffffffff169060200190929190505050610a9f565b005b3480156103a357600080fd5b506103c260048036038101908080359060200190929190505050610b74565b005b60008060009054906101000a900473ffffffffffffffffffffffffffffffffffffffff1673ffffffffffffffffffffffffffffffffffffffff163373ffffffffffffffffffffffffffffffffffffffff1614156104a8578190508073ffffffffffffffffffffffffffffffffffffffff1663fdacd5766001546040518263ffffffff167c010000000000000000000000000000000000000000000000000000000002815260040180828152602001915050600060405180830381600087803b15801561048f57600080fd5b505af11580156104a3573d6000803e3d6000fd5b505050505b5050565b60015481565b6000806000831115156104c457600080fd5b6002838154811015156104d357fe5b906000526020600020906005020190506106ae8161012060405190810160405290816000820160009054906101000a900460ff16151515158152602001600182015481526020016002820160009054906101000a900467ffffffffffffffff1667ffffffffffffffff1667ffffffffffffffff1681526020016002820160089054906101000a900463ffffffff1663ffffffff1663ffffffff16815260200160028201600c9054906101000a900461ffff1661ffff1661ffff16815260200160028201600e9054906101000a900461ffff1661ffff1661ffff1681526020016002820160109054906101000a900461ffff1661ffff1661ffff16815260200160038201600380602002604051908101604052809291908260038015610635576020028201916000905b82829054906101000a900461ffff1661ffff16815260200190600201906020826001010492830192600103820291508084116105fc5790505b50505050508152602001600482016004806020026040519081016040528092919082600480156106a0576020028201916000905b82829054906101000a900460ff1660ff16815260200190600101906020826000010492830192600103820291508084116106695790505b505050505081525050610bd4565b915050919050565b6000809054906101000a900473ffffffffffffffffffffffffffffffffffffffff1681565b60036020528060005260406000206000915054906101000a900473ffffffffffffffffffffffffffffffffffffffff1681565b60006007543414151561072057600080fd5b610729826104b2565b151561073457600080fd5b6003600083815260200190815260200160002060009054906101000a900473ffffffffffffffffffffffffffffffffffffffff1690507fc4a1356ad9a5a6f17bb679eb9991a90d9cecabaf21bf4a836de44b8da6b68cb28183604051808373ffffffffffffffffffffffffffffffffffffffff1673ffffffffffffffffffffffffffffffffffffffff1681526020018281526020019250505060405180910390a16109bc6002838154811015156107e757fe5b906000526020600020906005020161012060405190810160405290816000820160009054906101000a900460ff16151515158152602001600182015481526020016002820160009054906101000a900467ffffffffffffffff1667ffffffffffffffff1667ffffffffffffffff1681526020016002820160089054906101000a900463ffffffff1663ffffffff1663ffffffff16815260200160028201600c9054906101000a900461ffff1661ffff1661ffff16815260200160028201600e9054906101000a900461ffff1661ffff1661ffff1681526020016002820160109054906101000a900461ffff1661ffff1661ffff16815260200160038201600380602002604051908101604052809291908260038015610943576020028201916000905b82829054906101000a900461ffff1661ffff168152602001906002019060208260010104928301926001038202915080841161090a5790505b50505050508152602001600482016004806020026040519081016040528092919082600480156109ae576020028201916000905b82829054906101000a900460ff1660ff16815260200190600101906020826000010492830192600103820291508084116109775790505b505050505081525050610bf7565b5050565b60056020528060005260406000206000915054906101000a900473ffffffffffffffffffffffffffffffffffffffff1681565b600281815481101515610a0257fe5b90600052602060002090600502016000915090508060000160009054906101000a900460ff16908060010154908060020160009054906101000a900467ffffffffffffffff16908060020160089054906101000a900463ffffffff169080600201600c9054906101000a900461ffff169080600201600e9054906101000a900461ffff16908060020160109054906101000a900461ffff16905087565b6000809054906101000a900473ffffffffffffffffffffffffffffffffffffffff1673ffffffffffffffffffffffffffffffffffffffff163373ffffffffffffffffffffffffffffffffffffffff16141515610afa57600080fd5b600073ffffffffffffffffffffffffffffffffffffffff168173ffffffffffffffffffffffffffffffffffffffff16141515610b7157806000806101000a81548173ffffffffffffffffffffffffffffffffffffffff021916908373ffffffffffffffffffffffffffffffffffffffff1602179055505b50565b6000809054906101000a900473ffffffffffffffffffffffffffffffffffffffff1673ffffffffffffffffffffffffffffffffffffffff163373ffffffffffffffffffffffffffffffffffffffff161415610bd157806001819055505b50565b60008160000151158015610bf057506000826080015161ffff16115b9050919050565b6001816000019015159081151581525050610c10610c2c565b816101000181905250610c21610d57565b8160e0018190525050565b610c34610f3b565b6000806000806000610c44610f3b565b610c4f612710610e17565b9550600a8660ff16811515610c6057fe5b069450600a808760ff16811515610c7357fe5b0460ff16811515610c8057fe5b069350600a60648760ff16811515610c9457fe5b0460ff16811515610ca157fe5b069250600a6103e88760ff16811515610cb657fe5b0461ffff16811515610cc457fe5b06915084816000600481101515610cd757fe5b602002019060ff16908160ff168152505083816001600481101515610cf857fe5b602002019060ff16908160ff168152505082816002600481101515610d1957fe5b602002019060ff16908160ff168152505081816003600481101515610d3a57fe5b602002019060ff16908160ff168152505080965050505050505090565b610d5f610f5e565b600080600080610d6d610f5e565b610d786103e8610e17565b9450600a8560ff16811515610d8957fe5b0660ff169350600a808660ff16811515610d9f57fe5b0460ff16811515610dac57fe5b0660ff169250600a60648660ff16811515610dc357fe5b0460ff16811515610dd057fe5b0660ff1691506060604051908101604052808561ffff1661ffff1681526020018461ffff1661ffff1681526020018361ffff1661ffff168152509050809550505050505090565b6000610e2f6001600654610f1d90919063ffffffff16565b600681905550814233600654604051602001808481526020018373ffffffffffffffffffffffffffffffffffffffff1673ffffffffffffffffffffffffffffffffffffffff166c0100000000000000000000000002815260140182815260200193505050506040516020818303038152906040526040518082805190602001908083835b602083101515610ed85780518252602082019150602081019050602083039250610eb3565b6001836020036101000a03801982511681845116808217855250505050505090500191505060405180910390206001900460ff16811515610f1557fe5b069050919050565b6000808284019050838110151515610f3157fe5b8091505092915050565b608060405190810160405280600490602082028038833980820191505090505090565b6060604051908101604052806003906020820280388339808201915050905050905600a165627a7a72305820e33a678c80776a72923936c5a06a175990b76c15356d72a0fd46d593db373f830029",
  "source": "pragma solidity ^0.4.25;\n\nimport \"./GaoFactory.sol\";\n\ncontract GaoFusion is GaoFactory {\n    uint randNonce = 0;\n    uint fuseFee = 0.01 ether;\n\n    event Fusion(address owner, uint256 gaoId);\n\n\n    modifier onlyOwnerOf(uint _gaoId) {\n    require(msg.sender == gaoIndexToOwner[_gaoId]);\n    _;\n    }\n\n    // Create random number base on now, sender address, and an arbitary variable\n    function randMod(uint _modulus) internal returns(uint) {\n        randNonce = randNonce.add(1);\n        return uint8(keccak256(abi.encodePacked(now, msg.sender, randNonce))) % _modulus;\n    }\n\n    function _generateDna() private returns (uint8[4]) {\n        // Get 4 last number to use for body parts code\n        uint8 _rand = uint8(randMod(10000));\n        uint8 _head = _rand % 10;\n        uint8 _wing = uint8((_rand / 10) % 10);\n        uint8 _hands = uint8((_rand / 100) % 10);\n        uint8 _legs = uint8((_rand / 1000) % 10);\n        uint8[4] memory _dna;\n        _dna[0] = _head;\n        _dna[1] = _wing;\n        _dna[2] = _hands;\n        _dna[3] = _legs;\n        return _dna;\n    }\n\n    function _genarateAbility() internal returns (uint16[3]){\n        uint8 _rand = uint8(randMod(1000));\n        uint16 _fly = _rand % 10;\n        uint16 _swim = uint16((_rand / 10) % 10);\n        uint16 _run = uint16((_rand / 100) % 10);\n        uint16[3] memory _ability = [uint16(_fly), _swim, _run];\n        return _ability;\n    }\n\n    function _isReadyToFuse(Gao _gao) internal pure returns (bool) {\n        return (!_gao.mature) && (_gao.bonding > 0);\n    }\n\n    function isReadyToFuse(uint256 _gaoId) public view returns (bool) {\n        require(_gaoId > 0);\n        Gao storage gao = gaos[_gaoId];\n        return _isReadyToFuse(gao);\n    }\n\n    function _fuseGao(Gao _gao) internal {\n        _gao.mature = true;\n        _gao.dna = _generateDna();\n        _gao.ability = _genarateAbility();\n    }\n\n    function fuseGao (uint256 _gaoId) external payable {\n        require(msg.value == fuseFee);\n        require(isReadyToFuse(_gaoId));\n        address _owner = gaoIndexToOwner[_gaoId];\n        emit Fusion(_owner, _gaoId);\n        _fuseGao(gaos[_gaoId]);\n    }\n\n\n}\n",
  "sourcePath": "/home/tmduc/cryptomon/contracts/GaoFusion.sol",
  "compiler": {
    "name": "solc",
    "version": "0.4.25+commit.59dbf8f1.Emscripten.clang"
  },
  "schemaVersion": "3.0.6",
  "updatedAt": "2019-04-21T04:27:27.733Z",
  "devdoc": {
    "methods": {}
  },
  "userdoc": {
    "methods": {}
  }
}