{
  "contractName": "GaoFactory",
  "abi": [
    {
      "constant": false,
      "inputs": [
        {
          "name": "new_address",
          "type": "address"
        }
      ],
      "name": "upgrade",
      "outputs": [],
      "payable": false,
      "stateMutability": "nonpayable",
      "type": "function"
    },
    {
      "constant": true,
      "inputs": [],
      "name": "last_completed_migration",
      "outputs": [
        {
          "name": "",
          "type": "uint256"
        }
      ],
      "payable": false,
      "stateMutability": "view",
      "type": "function"
    },
    {
      "constant": true,
      "inputs": [],
      "name": "owner",
      "outputs": [
        {
          "name": "",
          "type": "address"
        }
      ],
      "payable": false,
      "stateMutability": "view",
      "type": "function"
    },
    {
      "constant": true,
      "inputs": [
        {
          "name": "",
          "type": "uint256"
        }
      ],
      "name": "gaoIndexToOwner",
      "outputs": [
        {
          "name": "",
          "type": "address"
        }
      ],
      "payable": false,
      "stateMutability": "view",
      "type": "function"
    },
    {
      "constant": true,
      "inputs": [
        {
          "name": "",
          "type": "uint256"
        }
      ],
      "name": "gaoIndexToApproved",
      "outputs": [
        {
          "name": "",
          "type": "address"
        }
      ],
      "payable": false,
      "stateMutability": "view",
      "type": "function"
    },
    {
      "constant": true,
      "inputs": [
        {
          "name": "",
          "type": "uint256"
        }
      ],
      "name": "gaos",
      "outputs": [
        {
          "name": "mature",
          "type": "bool"
        },
        {
          "name": "origin",
          "type": "uint256"
        },
        {
          "name": "birthTime",
          "type": "uint64"
        },
        {
          "name": "eventId",
          "type": "uint32"
        },
        {
          "name": "bonding",
          "type": "uint16"
        },
        {
          "name": "level",
          "type": "uint16"
        },
        {
          "name": "gao_type",
          "type": "uint16"
        }
      ],
      "payable": false,
      "stateMutability": "view",
      "type": "function"
    },
    {
      "constant": false,
      "inputs": [
        {
          "name": "newOwner",
          "type": "address"
        }
      ],
      "name": "transferOwnership",
      "outputs": [],
      "payable": false,
      "stateMutability": "nonpayable",
      "type": "function"
    },
    {
      "constant": false,
      "inputs": [
        {
          "name": "completed",
          "type": "uint256"
        }
      ],
      "name": "setCompleted",
      "outputs": [],
      "payable": false,
      "stateMutability": "nonpayable",
      "type": "function"
    },
    {
      "anonymous": false,
      "inputs": [
        {
          "indexed": false,
          "name": "owner",
          "type": "address"
        },
        {
          "indexed": false,
          "name": "gaoID",
          "type": "uint256"
        },
        {
          "indexed": false,
          "name": "gao_type",
          "type": "uint16"
        },
        {
          "indexed": false,
          "name": "origin",
          "type": "uint256"
        },
        {
          "indexed": false,
          "name": "mature",
          "type": "bool"
        },
        {
          "indexed": false,
          "name": "birthTime",
          "type": "uint64"
        },
        {
          "indexed": false,
          "name": "bonding",
          "type": "uint16"
        },
        {
          "indexed": false,
          "name": "level",
          "type": "uint16"
        }
      ],
      "name": "NewGao",
      "type": "event"
    },
    {
      "anonymous": false,
      "inputs": [
        {
          "indexed": false,
          "name": "_from",
          "type": "address"
        },
        {
          "indexed": false,
          "name": "_to",
          "type": "address"
        },
        {
          "indexed": false,
          "name": "tokenId",
          "type": "uint256"
        }
      ],
      "name": "Transfer",
      "type": "event"
    }
  ],
  "bytecode": "0x6080604052336000806101000a81548173ffffffffffffffffffffffffffffffffffffffff021916908373ffffffffffffffffffffffffffffffffffffffff1602179055506106cf806100536000396000f30060806040526004361061008e576000357c0100000000000000000000000000000000000000000000000000000000900463ffffffff1680630900f01014610093578063445df0ac146100d65780638da5cb5b14610101578063ac89caa014610158578063db90bcbb146101c5578063ef8d3d7a14610232578063f2fde38b146102d9578063fdacd5761461031c575b600080fd5b34801561009f57600080fd5b506100d4600480360381019080803573ffffffffffffffffffffffffffffffffffffffff169060200190929190505050610349565b005b3480156100e257600080fd5b506100eb610431565b6040518082815260200191505060405180910390f35b34801561010d57600080fd5b50610116610437565b604051808273ffffffffffffffffffffffffffffffffffffffff1673ffffffffffffffffffffffffffffffffffffffff16815260200191505060405180910390f35b34801561016457600080fd5b506101836004803603810190808035906020019092919050505061045c565b604051808273ffffffffffffffffffffffffffffffffffffffff1673ffffffffffffffffffffffffffffffffffffffff16815260200191505060405180910390f35b3480156101d157600080fd5b506101f06004803603810190808035906020019092919050505061048f565b604051808273ffffffffffffffffffffffffffffffffffffffff1673ffffffffffffffffffffffffffffffffffffffff16815260200191505060405180910390f35b34801561023e57600080fd5b5061025d600480360381019080803590602001909291905050506104c2565b60405180881515151581526020018781526020018667ffffffffffffffff1667ffffffffffffffff1681526020018563ffffffff1663ffffffff1681526020018461ffff1661ffff1681526020018361ffff1661ffff1681526020018261ffff1661ffff16815260200197505050505050505060405180910390f35b3480156102e557600080fd5b5061031a600480360381019080803573ffffffffffffffffffffffffffffffffffffffff16906020019092919050505061056e565b005b34801561032857600080fd5b5061034760048036038101908080359060200190929190505050610643565b005b60008060009054906101000a900473ffffffffffffffffffffffffffffffffffffffff1673ffffffffffffffffffffffffffffffffffffffff163373ffffffffffffffffffffffffffffffffffffffff16141561042d578190508073ffffffffffffffffffffffffffffffffffffffff1663fdacd5766001546040518263ffffffff167c010000000000000000000000000000000000000000000000000000000002815260040180828152602001915050600060405180830381600087803b15801561041457600080fd5b505af1158015610428573d6000803e3d6000fd5b505050505b5050565b60015481565b6000809054906101000a900473ffffffffffffffffffffffffffffffffffffffff1681565b60036020528060005260406000206000915054906101000a900473ffffffffffffffffffffffffffffffffffffffff1681565b60056020528060005260406000206000915054906101000a900473ffffffffffffffffffffffffffffffffffffffff1681565b6002818154811015156104d157fe5b90600052602060002090600502016000915090508060000160009054906101000a900460ff16908060010154908060020160009054906101000a900467ffffffffffffffff16908060020160089054906101000a900463ffffffff169080600201600c9054906101000a900461ffff169080600201600e9054906101000a900461ffff16908060020160109054906101000a900461ffff16905087565b6000809054906101000a900473ffffffffffffffffffffffffffffffffffffffff1673ffffffffffffffffffffffffffffffffffffffff163373ffffffffffffffffffffffffffffffffffffffff161415156105c957600080fd5b600073ffffffffffffffffffffffffffffffffffffffff168173ffffffffffffffffffffffffffffffffffffffff1614151561064057806000806101000a81548173ffffffffffffffffffffffffffffffffffffffff021916908373ffffffffffffffffffffffffffffffffffffffff1602179055505b50565b6000809054906101000a900473ffffffffffffffffffffffffffffffffffffffff1673ffffffffffffffffffffffffffffffffffffffff163373ffffffffffffffffffffffffffffffffffffffff1614156106a057806001819055505b505600a165627a7a72305820d0f906e59ed4b3b0408edc446d3ff07d9143d0ea4e098e18ac2efab94ceb5a870029",
  "source": "pragma solidity ^0.4.25;\n\nimport \"./Migrations.sol\";\nimport \"./safemath.sol\";\n\ncontract GaoFactory is Migrations {\n\n    using SafeMath for uint256;\n    using SafeMath32 for uint32;\n    using SafeMath16 for uint16;\n\n    event NewGao(address owner, uint256 gaoID, uint16 gao_type, uint origin, bool mature, uint64 birthTime, uint16 bonding, uint16 level);\n\n    event Transfer(address _from, address _to, uint256 tokenId);\n\n    struct Gao {\n        bool mature;\n        uint origin; // {1:'phoenix', 2:'bat'}\n        uint64 birthTime;\n        uint32 eventId;\n        uint16 bonding; // Max 100\n        uint16 level; // Max 100\n        uint16 gao_type; // common, rare, legend\n        uint16[3] ability; // [fly, swim, run]\n        uint8[4] dna; // head, wing, hands, legs\n    }\n\n    Gao[] public gaos;\n\n    mapping (uint256 => address) public gaoIndexToOwner;\n    mapping (address => uint256) ownershipTokenCount;\n    mapping (uint256 => address) public gaoIndexToApproved;\n\n    function _transfer(address _from, address _to, uint256 _tokenId) internal {\n        ownershipTokenCount[_to]++;\n        // transfer ownership\n        gaoIndexToOwner[_tokenId] = _to;\n        if (_from != address(0)) {\n            ownershipTokenCount[_from]--;\n            delete gaoIndexToApproved[_tokenId];\n        }\n        // Emit the transfer event.\n        emit Transfer(_from, _to, _tokenId);\n    }\n\n    function _createGao(\n        address _owner,\n        uint _origin,\n        uint16 _gao_type,\n        uint32 _eventId\n    ) internal returns (uint) {\n        Gao memory _gao = Gao({\n            mature: false,\n            origin: _origin,\n            birthTime: uint64(now),\n            eventId: _eventId,\n            bonding: 0,\n            level: 1,\n            gao_type: _gao_type,\n            dna: [uint8(0), uint8(0), uint8(0), uint8(0)],\n            ability: [uint16(0), uint16(0), uint16(0)]\n            });\n        uint256 newGaoId = gaos.push(_gao) - 1;\n\n        // Make sure number of Gao never cross 4 billion.\n        require(newGaoId == uint256(uint32(newGaoId)));\n\n        //emit event NewGao\n        emit NewGao(_owner, newGaoId, _gao.gao_type, _gao.origin, _gao.mature, _gao.birthTime,  _gao.bonding, _gao.level);\n\n        _transfer(address(0), _owner, newGaoId);\n        return newGaoId;\n    }\n}\n",
  "sourcePath": "/home/tmduc/cryptomon/contracts/GaoFactory.sol",
  "compiler": {
    "name": "solc",
    "version": "0.4.25+commit.59dbf8f1.Emscripten.clang"
  },
  "schemaVersion": "3.0.6",
  "updatedAt": "2019-04-21T04:27:27.730Z",
  "devdoc": {
    "methods": {}
  },
  "userdoc": {
    "methods": {}
  }
}